:020000040800F2
:100000002060002029030008834D0008C742000833
:100010007F4D0008D50B00086D600008000000004F
:10002000000000000000000000000000690200085D
:10003000BB10000800000000C5020008355400088D
:100040004303000843030008430300084303000878
:100050004303000843030008430300084303000868
:100060004303000843030008430300084303000858
:100070008D0F0008430300084303000843030008F2
:10008000430300084303000843030008110C000861
:10009000F10B0008010C00084303000843030008AB
:1000A0004303000843030008430300084303000818
:1000B0004303000843030008430300084303000808
:1000C00043030008430300084303000843030008F8
:1000D00043030008155E000843030008255E00087E
:1000E00043030008430300084303000843030008D8
:1000F00043030008430300084303000843030008C8
:100100004303000843030008815500084303000827
:100110004303000843030008915500084303000807
:10012000430300089D0F0008AD0F0008BD0F000835
:100130004303000843030008430300084303000887
:10014000210C0008310C0008430300084303000899
:1001500043030008CD0F000843030008555F000863
:100160004303000843030008430300084303000857
:100170004303000843030008430300080000000095
:10018000430300084303000800F002F800F05CF8A5
:100190000AA090E8000C82448344AAF10107DA45E2
:1001A00001D100F051F8AFF2090EBAE80F0013F0D8
:1001B000010F18BFFB1A43F0010318477CE600004B
:1001C0009CE600000A444FF0000C10F8013B13F0CD
:1001D000070408BF10F8014B1D1108BF10F8015BA0
:1001E000641E05D010F8016B641E01F8016BF9D193
:1001F00013F0080F1EBF10F8014BAD1C0C1B09D1EA
:100200006D1E58BF01F801CBFAD505E014F8016B5B
:1002100001F8016B6D1EF9D59142D6D370470000ED
:100220000023002400250026103A28BF78C1FBD8FF
:10023000520728BF30C148BF0B6070471FB50DF093
:100240001EFD1FBD10B510BD00F051FA1146FFF79D
:10025000F5FF09F093FC00F06FFA03B4FFF7F2FF2B
:1002600003BC00F07FFA00002C4B19680868B0E866
:10027000F04F80F30988BFF36F8F4FF0000080F3D9
:10028000118870470000000008480068006880F38B
:1002900008884FF0000080F3148862B661B6BFF39F
:1002A0004F8FBFF36F8F00DF00BF00BF08ED00E08E
:1002B000DFF80C00016841F470010160704700BF75
:1002C00088ED00E0EFF30980BFF36F8F134B1A68DE
:1002D0001EF0100F08BF20ED108A20E9F04F1060CB
:1002E00009B44FF0500080F31188BFF34F8FBFF374
:1002F0006F8F0BF0A5F94FF0000080F3118809BC57
:1003000019680868B0E8F04F1EF0100F08BFB0EC95
:10031000108A80F30988BFF36F8F70474400002074
:10032000EFF30580704700000948804709480047FF
:10033000FEE7FEE7FEE7FEE7FEE7FEE7FEE7FEE795
:10034000FEE7FEE704480549054A064B70470000F2
:100350001D55000889010008205A00202060002057
:10036000205C0020205C002053EA020C00F0698031
:100370002DE9F04B4FF00006002B1FBFB3FA83F5B9
:1003800003FA05F424FA05F65E4012BF1643B2FAEA
:1003900082F502FA05F4C5F120051EBF22FA05FC1C
:1003A00044EA0C04203556EA044C4FEA144418BFC2
:1003B000641C4FF000084FF00009904271EB030CF1
:1003C00039D3002919BFB1FA81F701FA07F6B0FA5B
:1003D00080F700FA07F6C7F120071EBF20FA07FCD6
:1003E00046EA0C062037B6FBF4FCA7EB0507103FE6
:1003F00007F01F0BCBF120060CFA0BFB2CFA06F6CC
:1004000044BFB3460026202FA4BF5E464FF0000B2A
:100410005BEA060C08BF4FF0010B19EB0B09ABFBB5
:10042000027C48EB0608C01B06FB02CC0BFB03CC8E
:1004300071EB0C01C1E70B46024641464846BDE858
:10044000F08B13B54FF000004FF00001AFF30080C8
:10045000BDE81C407047032A40F2308010F0030CC6
:1004600000F0158011F8013BBCF1020F624498BF07
:1004700011F801CB00F8013B38BF11F8013BA2F1A4
:10048000040298BF00F801CB38BF00F8013B11F01F
:10049000030300F06780083AC0F0088051F8043B7D
:1004A000083A51F804CBA0E80810F5E7121D5CBF2C
:1004B00051F8043B40F8043BAFF30080D20724BF5F
:1004C00011F8013B11F801CB48BF11F8012B24BFF3
:1004D00000F8013B00F801CB48BF00F8012B704742
:1004E000431A28BF9A427FF6B6AF032A104411443C
:1004F00040F2268010F0030F1EBF11F8013D521E7E
:1005000000F8013D10F0030F7FF4F6AF11F0030384
:1005100000F0A280083AC0F00B8051F8043D083A80
:1005200051F804CD40F8043D40F804CDFFF7F3BF87
:10053000121D5CBF51F8043D40F8043DAFF300804C
:10054000D20724BF11F8013D11F801CD48BF11F8C1
:10055000012C24BF00F8013D00F801CD48BF00F890
:10056000012C704710B5203AC0F00B80B1E818504C
:10057000203AA0E81850B1E81850A0E81850BFF48D
:10058000F5AF5FEA027C24BFB1E81850A0E818502C
:1005900044BF18C918C0BDE810405FEA827C24BF80
:1005A00051F8043B40F8043B08BF7047D20728BF0E
:1005B00031F8023B48BF11F8012B28BF20F8023B5D
:1005C00048BF00F8012B70474FF0000200B51346FA
:1005D00094469646203922BFA0E80C50A0E80C5063
:1005E000B1F12001BFF4F7AF090728BFA0E80C5014
:1005F00048BF0CC05DF804EB890028BF40F8042B0D
:1006000008BF704748BF20F8022B11F0804F18BF79
:1006100000F8012B704770477047704710B500F025
:1006200049F8006810BD10B5044600F043F80460B6
:1006300010BD431A28BF9A427FF694AF104410F0C1
:10064000030F11441EBF11F8013D521E00F8013D79
:1006500010F0030F7FF4F6AF103AC0F00A8010B527
:1006600031E91850103A20E91850BFF4F9AFBDE84D
:100670001040530724BF31E9081020E9081044BF97
:1006800051F8043D40F8043D12F0030F08BF7047D5
:10069000D20728BF31F8023D48BF11F8012C28BF0E
:1006A00020F8023D48BF00F8012C70470048704711
:1006B000BC59002000487047BC5900201FB584B0C9
:1006C00000200A9C06AB04AA02A90094AFF30080A4
:1006D00018B1DDE9020108B010BD0348204000F068
:1006E00039F800200146F6E70000207C7047754687
:1006F000FFF7DCFFAE4605006946534620F00700D1
:10070000854618B020B5FFF71DFEBDE820404FF02C
:1007100000064FF000074FF000084FF0000B21F0EB
:100720000701AC46ACE8C009ACE8C009ACE8C009B8
:10073000ACE8C0098D46704710B50446AFF30080A1
:100740002046BDE81040FFF788BD002801D000F02A
:1007500009B8704710B500F025F8BDE81040FFF764
:10076000F4BF000001491820ABBEFEE726000200DE
:1007700070B505460C460A2000E06D1C00F068F8D4
:1007800035B128780028F8D102E0641C00F060F848
:1007900014B120780028F8D1BDE870400A2000F09C
:1007A00057B8000010B5022803D0410103D50DA1B0
:1007B00012E0002010BD010101D50FA10CE0C10025
:1007C00001D511A108E0810001D512A104E040008B
:1007D00001D513A100E0002115A0FFF7C9FF0120FA
:1007E00010BD0000496E76616C6964204F706572BF
:1007F0006174696F6E000000446976696465204227
:1008000079205A65726F00004F766572666C6F775B
:1008100000000000556E646572666C6F7700000022
:10082000496E657861637420526573756C7400005D
:100830005349474650453A2041726974686D657462
:10084000696320657863657074696F6E3A20000093
:1008500008B569468DF800000320ABBE08BD000056
:10086000B7EE000A80ED000A9FED060A80ED010A4E
:100870009FED040A80ED020A9FED020A80ED030A53
:10088000704700000000000010B50122102102484E
:1008900001F01CFE10BD00000000024010B5002257
:1008A0001021024801F012FE10BD000000000240BD
:1008B0007047000010B501221146024801F006FE03
:1008C00010BD00000004024010B5002201210248C2
:1008D00001F0FCFD10BD000000040240704710B59F
:1008E000044603E04FF47A7000F006F8201EA4F1ED
:1008F00001018CB2F6D110BD70B5034600BF00BF38
:100900000020002200BF4FF0E0267569A82603FBF7
:1009100006F44FF0E026B16910E04FF0E026B06930
:1009200088420BD0884202D20E1A324402E02E1ABC
:100930000E4432440146A24200D300E0EDE700BF7E
:1009400070BD10B50024FFF7B3FFFFF7C7FF07F036
:10095000F9F9044307F08AFA0443204610BD000069
:100960002DE9FC4105460E461746002000900190F7
:10097000FFF794FF922000F0D1F80622694612207A
:1009800000F0ACF8FFF780FF9DF80100000200B214
:100990009DF8001040EA010400EE104AB8EEC00ACB
:1009A0004C48D0ED000A20EE200A86ED000A9DF8A2
:1009B0000300000200B29DF8021040EA010400EEBC
:1009C000104AB8EEC00A4348D0ED000A20EE200AD3
:1009D00086ED010A9DF80500000200B29DF80410A2
:1009E00040EA010400EE104AB8EEC00A3948D0EDE2
:1009F000000A20EE200A86ED020AFFF765FF0822B2
:100A00006946002000F06AF8FFF754FF9DF80000E7
:100A10000F2838D19DF80300000200B29DF80210A3
:100A200040EA010400EE104AB8EEC00A2A48D0EDB0
:100A3000000A20EE200A85ED000A9DF8050000025C
:100A400000B29DF8041040EA010400EE104AB8EE2E
:100A5000C00A2148D0ED000A20EE200A85ED010AE7
:100A60009DF80700000200B29DF8061040EA01045C
:100A700000EE104AB8EEC00A1748D0ED000A20EE8A
:100A8000200A85ED020AFFF709FFA22000F046F8D0
:100A900002226946222000F021F8FFF7F5FE9DF8BA
:100AA0000000C0009DF8011040EA6114B4F5806FA9
:100AB00002DBA4F5006004B200EE104AF8EEC00AB2
:100AC000B4EE001AB3EE070A00EE810A87ED000AC1
:100AD000BDE8FC81A0010020A401002070B50646FD
:100AE0000C46154646F0800000F018F806E0552048
:100AF00000F014F82070641C681EC5B2002DF6D1F9
:100B000070BD70B504460D4644F0800000F006F854
:100B1000552000F003F8287070BD000001B582B0C8
:100B20004FF47A70012301AA02A90090024802F052
:100B3000A3FA9DF804000EBD1009002070B505460B
:100B40000C462846FFF7EAFF2046FFF7E7FF70BD97
:100B500010B5044694ED080AD4ED040A9FED1B1A63
:100B600060EE810AB4EEE00AF1EE10FA00D210BD98
:100B7000D4ED060A94ED071A70EEC10AB0EE600AD1
:100B800004F0F0F894ED061AC0EE010A9FED100A89
:100B9000F4EEC00AF1EE10FA07DDD4E91A20521C77
:100BA00040F10000C4E91A2002E00021A166E166DC
:100BB0004FF4FA610020D4E91A32C91A904102D2E6
:100BC00001217020015500BFD1E70000CDCCCC3D04
:100BD0006666663F00BFFEE710B5044802F02CFCD5
:100BE0000821024802F006FF10BD0000280A00207C
:100BF00010B5024800F042FD10BD0000C008002002
:100C000010B5024800F03AFD10BD0000C0080020F9
:100C100010B5024800F032FD10BD0000C0080020F1
:100C200010B5024800F02AFD10BD0000E8080020C1
:100C300010B5024800F022FD10BD0000E8080020B9
:100C40002DE9F0418AB080460C4616461D46109F9D
:100C50004FF404700490002006900790082008903C
:100C60008DF80880E0B28DF8090020128DF80A0096
:100C70008DF80B6028128DF80C00E8B28DF80D008D
:100C800038128DF80E00F8B28DF80F0001AB02AAF1
:100C900004A9034800F0F7FA0AB0BDE8F0810000AB
:100CA000E8080020F0B587B007460C4615461E46FA
:100CB0004FF40070009008200490002003900290F0
:100CC000380A0A4908704F70200A8870CC70280AC8
:100CD00008714D71300A8871CE7106AB0A466946BB
:100CE000034800F0D0FA07B0F0BD000098010020E2
:100CF000E808002010B588B0044640F2FF100190CB
:100D000000200390049002200590200A8DF8000036
:100D1000E0B28DF8010007AB6A4601A9024800F075
:100D2000B2FA08B010BD0000E808002010B51E4857
:100D3000007848B91D480068007920F03C00001D8B
:100D40001A490968087108E018480068007920F01D
:100D50003C002030154909680871154890ED000ADB
:100D6000F1EE020A30EE600A9FED121AC0EE010A9F
:100D70000E4800680089C0F38A0000EE100AB8EE41
:100D8000400A9FED0D1A00EE810ABCEEC00A10EE7B
:100D9000100A06490968898960F38C0103480068D4
:100DA000818106F025FF10BDC2000020E401002073
:100DB0008001002033332B410000324410B5344809
:100DC00090ED000ADFED330A30EEC00ABDEEC00A36
:100DD00010EE100A00B23049088008460BF072FB92
:100DE0002D4800882D490968898860F38E112B48A9
:100DF00000688180264890ED000AF3EE0E0A30EE7E
:100E0000C00ABDEEC00A10EE100A00B224490880E4
:100E100008460BF057FB2248008820490968B1F8C2
:100E2000051060F3CF111D480068A0F805101D489B
:100E300090F8F802062814D11B480068007920F0C9
:100E40003C00143018490968087117480068B0F868
:100E500007006FF309000F3013490968A1F8070074
:100E600013E011480068007920F03C001C300E4966
:100E7000096808710C480068B0F807006FF30900B2
:100E8000C01C09490968A1F8070006F0D3FE10BD8F
:100E9000C40000200000A54378010020F0010020DC
:100EA0007A010020204B0020EC0100201848406807
:100EB000B0F9020000EE100AB8EEC00A154880ED45
:100EC000010A13488069B0F9020000EE100AB8EE7A
:100ED000C00A104880ED020A0D48C06AB0F902004D
:100EE00000EE100AB8EEC00A0A4880ED030A08486E
:100EF000006CB0F9020000EE100AB8EEC00A054816
:100F000080ED040A90ED000A80ED060A70470000AB
:100F1000204B0020044B002010B5184800781849D9
:100F200008701848007F70B917480068B0F80700CB
:100F30006FF30900643014490968A1F80700012023
:100F40000E49087010E00F48007F01280CD10020E6
:100F50000A4908700C480068B0F807006FF30900F0
:100F600009490968A1F8070004480078044909788C
:100F7000884201D006F080FE10BD00007E010020F6
:100F80007F010020684E00200402002010B50248B6
:100F900001F00CF810BD0000840B002010B50248D1
:100FA00001F004F810BD0000E40B002010B5024869
:100FB00000F0FCFF10BD00006809002010B50248D9
:100FC00000F0F4FF10BD0000C809002010B5024871
:100FD00000F0ECFF10BD0000440C00200146087832
:100FE00010381823B0FBF3F20848805CC865032A68
:100FF00005D908686FF30900001D886503E00868DB
:101000006FF309008865886D70470000FCDF0008F9
:10101000014600208A6A8B69CBB932B1012A0DD012
:10102000022A03D0032A10D10EE000BFCB6A03F0DE
:101030008073B3F1807F00D1012007E0CB6AB3F168
:10104000C07F00D1012001E000E000BF34E08B69E7
:10105000B3F5005F1AD132B1012A07D0022A03D0BA
:10106000032A11D10AE000BF01200EE0CB6A03F091
:101070008073B3F1807F00D1012006E0CB6AB3F129
:10108000C07F00D1012000E000BF15E032B1012A8D
:1010900005D0022A04D0032A0CD103E000BF00BF10
:1010A000012008E0CB6A03F08073B3F1807F00D1A8
:1010B000012000E000BF00BF7047704710B5144822
:1010C0000078144908701448C07F60B9134800685C
:1010D000007920F03C0018301049096808710020A0
:1010E0000B4908700BE00D480068007920F03C00C7
:1010F00014300A490968087101200549087004483C
:10110000007804490978884201D006F04FFD10BDEF
:101110007501002076010020684E0020E0010020CB
:1011200072B600BFFEE7000010B53D4800783D49AB
:1011300008703D48807EA8B33C4890F8D104C0F3C5
:10114000800078B34FF4967139480068808961F364
:101150008C003749096888814FF4967134480068DB
:10116000B0F80D0061F34F1031490968A1F80D0086
:101170004FF496712F480068808961F38C002D49E7
:10118000096888814FF496712A480068B0F80D000C
:1011900061F34F1027490968A1F80D00002020498C
:1011A000087034E0FFE7214890F8D104C0F38000D4
:1011B00010B11D48807E50BB00211D480068808909
:1011C00061F38C001A490968888100211848006879
:1011D000B0F80D0061F34F1015490968A1F80D0032
:1011E000002114480068808961F38C001149096866
:1011F000888100210F480068B0F80D0061F34F109E
:101200000C490968A1F80D0001200549087004483F
:10121000007804490978884201D006F04FFD10BDDE
:101220007301002074010020684E00202C51002022
:10123000F8010020F401002030B5034605E013F862
:10124000010B80EA02040448025D081EA1F10101BD
:10125000F5D1104630BD0000A1E0000810B50246EF
:1012600092F82030012B01D0022B06D11068406982
:10127000084314686061002010BD506A40F480206B
:1012800050620120F8E7F0B504460D461E4694F87A
:10129000207020688368A86800B900E000BF012FB3
:1012A00001D0022F7CD103F0806030B903F00060E0
:1012B00018B903F08050002873D0C3F301610229EC
:1012C00005D9606A40F4000060620120F0BD012091
:1012D00088403060A86860B9B5F800C0E86840EAA6
:1012E0004C5C206800F5C07000EB0110C0F800C035
:1012F0000FE0D5E901C040EACC00D5F80CC040EAC7
:101300000C00D4F800C00CF5C07C0CEB011CCCF830
:101310000000D5F810C0206800F5C07000EB011087
:10132000C0F804C0287D01280ED1206800F5C070E7
:1013300000EB0110406840F4807C206800F5C0702C
:1013400000EB0110C0F804C0D079000692F806C086
:1013500040EA0C4092F805C040EA0C2C10794CEAA7
:10136000000C206800F5C07000EB0110C0F80CC044
:10137000D078000692F802C040EA0C4092F801C012
:1013800040EA0C2092F800C040EA0C00D4F800C0FB
:101390000CF5C07C0CEB011CCCF80800206801E0C7
:1013A00016E00FE000F5C07000EB0110006840F09F
:1013B000010C206800F5C07000EB0110C0F800C0FF
:1013C000002083E7606A40F40010606201207DE73E
:1013D000606A40F480206062012077E7F0B504463F
:1013E0000A46216894F82050012D01D0022D7ED1AB
:1013F000424901F50071086840F001000860086882
:1014000020F47C5008600868566A40EA06200860AC
:10141000107D00F01F06012000FA06F3C86998430A
:10142000C861A1F50071D069C8B9D1F80C02984320
:10143000C1F80C02908880B2968940EA064601F510
:101440001070576940F83760108880B2168940EAFA
:10145000064601F51070576900EBC7004660D06979
:10146000012819D1D1F80C021843C1F80C02908858
:1014700080B2168840EA064601F51070576940F8B8
:101480003760908980B2168940EA064601F51070EF
:10149000576900EBC7004660906928B9D1F804028B
:1014A0009843C1F8040204E0D1F804021843C1F8DB
:1014B0000402106928B9D1F814029843C1F8140243
:1014C00004E0D1F814021843C1F81402106A01288C
:1014D00004D1D1F81C021843C1F81C02D1F8000253
:1014E00020F00100C1F800020020F0BDFFE7606AB3
:1014F00040F4802060620120F7E7000000640040B3
:10150000704770B5044694F82050012D01D0022D8B
:101510007DD151B92068C06800F0030080B9606ACD
:1015200040F400106062012070BD2068006900F086
:10153000030028B9606A40F4001060620120F3E7FC
:10154000206800F5D87000EB0110006800F004007E
:101550009060906840B9206800F5D87000EB0110E9
:101560000068400D106007E0206800F5D87000EBBF
:1015700001100068C0085060206800F5D87000EBCA
:101580000110006800F00200D060206800F5D870FB
:1015900000EB0110406800F00F001061206800F5BA
:1015A000D87000EB0110406800F47F40000A9061A1
:1015B000206800F5D87000EB01104068000C506105
:1015C000206800F5D87000EB011080681870206862
:1015D00000F5D87000EB0110806800F47F40000A2D
:1015E0005870206800F5D87000EB0110806800F496
:1015F0007F00000C9870206800F5D87000EB011097
:101600008068000ED870206800F5D87000E02FE0E8
:1016100000EB0110C0681871206800F5D87000EB6D
:101620000110C06800F47F40000A5871206800F57E
:10163000D87000EB0110C06800F47F00000C9871B6
:10164000206800F5D87000EB0110C068000ED8715A
:1016500031B92068C06840F020002668F06005E0DD
:101660002068006940F020002668306100205BE7B8
:10167000606A40F480206062012055E72DE9F05F48
:1016800004460025206846692068D0F80490206848
:1016900087682068D0F80CA02068D0F810B02068C7
:1016A000D0F8188006F00100002855D007F001009E
:1016B000C0B101202168886007F0020018B12046FF
:1016C00000F003FC0EE007F0040010B145F40065E3
:1016D00008E007F0080010B145F4805502E020460C
:1016E00000F0F2FB07F48070C8B14FF480702168FD
:1016F000886007F4007018B1204600F0E8FB0EE0A7
:1017000007F4806010B145F4005508E007F400606C
:1017100010B145F4804502E0204600F0D7FB07F405
:101720008030C8B14FF480302168886007F4003001
:1017300018B1204600F0CDFB0EE007F4802010B178
:1017400045F4004508E007F4002010B145F4803569
:1017500002E0204600F0BCFB06F0080038B10AF0B9
:10176000100020B145F4007510202168C86006F013
:10177000040040B10AF0080028B108202168C860C0
:10178000204600F025FA06F0020038B12068C06853
:1017900000F0030010B1204600F01CFA06F04000F3
:1017A00038B10BF0100020B145F48065102021689D
:1017B000086106F0200040B10BF0080028B10820B5
:1017C00021680861204600F04DFB06F0100038B19A
:1017D0002068006900F0030010B1204600F043FBD0
:1017E00006F4003040B109F0100028B11020216843
:1017F0004860204600F038FB06F4803040B109F024
:10180000080028B1082021684860204600F062FBEB
:1018100006F4004088B309F0040078B306F4807041
:1018200020B108F0010008B145F0010506F4007090
:1018300020B108F0020008B145F0020506F480600E
:1018400020B108F0040008B145F0040506F400607A
:10185000A0B108F0700088B108F07000402817D0DF
:1018600006DC10280BD020280CD0302819D10CE031
:10187000502810D0602814D110E01DE019E045F088
:1018800008050FE045F010050CE045F0200509E0E3
:1018900045F0400506E045F0800503E045F480751D
:1018A00000E000BF00BF2068806920F07000216860
:1018B00088610420216848602DB1606A2843606215
:1018C0002046FFF71DFEBDE8F09F70B504460CB939
:1018D000012070BD94F8200010B9204600F0B0F847
:1018E0002068006840F001002168086000F0F4FD05
:1018F00005460DE000F0F0FD401B0A2808D9606A9B
:1019000040F400306062052084F820000120E0E708
:101910002068406800F001000028EBD020680068D3
:1019200020F002002168086000F0D6FD05460DE0B9
:1019300000F0D2FD401B0A2808D9606A40F400304C
:101940006062052084F820000120C2E7206840681A
:1019500000F002000028EBD1207E012806D120688B
:10196000006840F080002168086005E02068006899
:1019700020F0800021680860607E012806D1206880
:10198000006840F040002168086005E020680068B9
:1019900020F0400021680860A07E012806D1206860
:1019A000006840F020002168086005E020680068B9
:1019B00020F0200021680860E07E012806D1206820
:1019C000006820F010002168086005E020680068C9
:1019D00040F0100021680860207F012806D12068AF
:1019E000006840F008002168086005E02068006891
:1019F00020F0080021680860607F012806D1206877
:101A0000006840F004002168086005E02068006874
:101A100020F0040021680860D4E90201084321692C
:101A20000843616908436168491E08432168C86129
:101A300000206062012084F82000002049E70000B7
:101A400010B586B00446142101A8FEF7BDFD5A4921
:101A50002068884251D159480068401C57490860A5
:101A60000846006801280FD100BF002000905448AC
:101A7000006840F00070524908600846006800F0B5
:101A80000070009000BF00BF00BF002000904C48D5
:101A90001038006840F008004949103908600846CD
:101AA000006800F00800009000BF00BF0320019014
:101AB000022002900020039003200490092005904A
:101AC00001A9404800F008FC00220521132000F085
:101AD000C7FD132000F0B4FD00220521142000F002
:101AE000BFFD142000F0ACFD00220521152000F000
:101AF000B7FD152000F0A4FD5CE033492068884262
:101B000058D100BF002000902D48006840F0806050
:101B10002B4908600846006800F08060009000BF14
:101B200000BF26480068401C244908600846006839
:101B300001280FD100BF002000902148006840F02C
:101B400000701F4908600846006800F000700090AF
:101B500000BF00BF00BF0020009019481038006887
:101B600040F002001649103908600846006800F08D
:101B70000200009000BF00BF602001900220029090
:101B800000200390032004900920059001A90F482C
:101B900000F0A2FB00220521402000F061FD402062
:101BA00000F04EFD00220521412000F059FD4120AA
:101BB00000F046FD06B010BD00640040300000207B
:101BC00040380240000C024000680040000402401F
:101BD0007047000010B58EB00446974920688842CF
:101BE00036D1964B07AA00219548FFF78AFC079843
:101BF000A0F2111010B1F82828D104E08F499148C3
:101C000007F0B4FE23E09048008800B28E490881B6
:101C10008A4840788949097840EA01208A49088041
:101C20008648C0788549897840EA012000B2864913
:101C30004880824840798149097940EA012000B210
:101C4000814988807D488079887100E000BFF0E09C
:101C50007E4920688842FAD17D4B6A4600217D4842
:101C6000FFF74FFC0098B0F5017F7DD007DCA0F2B4
:101C7000012058B101282FD0022876D153E0A0F2DC
:101C80000520002872D00C28F7D1C5E072480088E2
:101C900000B2714908816E4840786D49097840EA80
:101CA00001206D4908806A48C0786949897840EA0E
:101CB000012000B268494880654840796449097943
:101CC00040EA012000B264498880614880798871C7
:101CD000012007F0A9FAABE05F48408901B25E48F5
:101CE00041825B4840785A49097840EA01205A49C4
:101CF00048815748C0785649897840EA012001B2A6
:101D000055488181524840795149097940EA01207A
:101D100001B25148C1814E4881794F480174022077
:101D200007F082FA84E04C48808A01B24A488183F5
:101D3000474840784649097840EA01204649888268
:101D40004348C0784249897840EA012001B24248BC
:101D5000C1823F4840793E49097940EA012001B2F9
:101D60003D4801833A4802E008E060E02EE08179D6
:101D700039488176032007F057FA59E03648C08B7E
:101D800001B23548C184324840783149097840EA87
:101D900001203149C8832E48C0782D49897840EA0E
:101DA000012001B22C480184294840792849097949
:101DB00040EA012001B2284841842548817926481B
:101DC00080F82410042007F02FFA31E0234800881F
:101DD00000B2224908811E4840781D49097840EA2E
:101DE00001201E4908801A48C0781949897840EABC
:101DF000012000B2194948801548407914490979F1
:101E000040EA012000B21549888011488079887124
:101E1000092007F009FA0BE011480D490968016033
:101E20000B49097901710B2007F0FEF900E000BFB2
:101E300000BF0EB010BD000000640040880100200B
:101E4000C0080020684E0020925800200068004022
:101E500090010020E80800206058002088580020E9
:101E60008001002070477047704770B5044694F8B1
:101E70002000012822D1022084F820002068006878
:101E800020F001002168086000F026FB05460DE007
:101E900000F022FB401B0A2808D9606A40F4003099
:101EA0006062052084F82000012070BD2068406831
:101EB00000F001000028EBD16062F6E7606A40F4B0
:101EC000002060620120F0E770477047704770475C
:101ED00070477047704770B50446A56D00F0FCFA76
:101EE000064694F83500022808D08020606500BFBF
:101EF000002084F8340000BF012070BD2068006815
:101F000020F01600216808602068406920F08000F9
:101F100021684861206C08B9A06C28B1206800686D
:101F200020F00800216808602068006820F00100A7
:101F30002168086010E000F0CFFA801B05280BD95B
:101F400020206065032084F8350000BF002084F85D
:101F5000340000BF0320D0E72068006800F00100D3
:101F60000028E8D194F85C103F208840A860012048
:101F700084F8350000BF002084F8340000BF00BFA3
:101F8000BBE7014691F83500022803D08020486560
:101F900001207047052081F835000868006820F0AE
:101FA00001000A6810600020F3E70000F8B504465D
:101FB000002000908C4800684FF41651B0FBF1F7F8
:101FC000A56D2E6894F85C1008208840304098B1C8
:101FD0002068006800F0040070B12068006820F0FC
:101FE00004002168086094F85C1008208840A8600C
:101FF000606D40F00100606594F85C10012088403D
:10200000304068B12068406900F0800040B194F829
:102010005C1001208840A860606D40F0020060659F
:1020200094F85C1004208840304068B12068006853
:1020300000F0020040B194F85C1004208840A860D1
:10204000606D40F00400606594F85C1010208840DA
:10205000304078B32068006800F0080050B394F86E
:102060005C1010208840A8602068006800F4802080
:1020700080B12068006800F4002028B9206CC8B145
:102080002046216C884715E0A06C98B12046A16CD1
:1020900088470FE02068006800F4807028B9206845
:1020A000006820F0080021680860206C10B120460C
:1020B000216C884794F85C1020208840304000282C
:1020C00065D02068006800F0100000285FD094F808
:1020D0005C1020208840A86094F83500052828D19D
:1020E0002068006820F016002168086020684069B8
:1020F00020F0800021684861206C08B9A06C28B1EC
:102100002068006820F008002168086094F85C10DE
:102110003F208840A860012084F8350000BF0020DF
:1021200084F8340000BF206D10B12046216D88472F
:10213000F8BD2068006800F4802080B12068006845
:1021400000F4002028B9606C10B12046616C88470B
:102150001DE0E06BD8B12046E16B884717E02068AE
:10216000006800F4807068B92068006820F01000F2
:1021700021680860012084F8350000BF002084F841
:10218000340000BFE06B10B12046E16B8847606D02
:1021900038B3606D00F00100F0B1052084F835001F
:1021A0002068006820F001002168086000BF0098E6
:1021B000401C0090B84200D905E02068006800F09B
:1021C00001000028F3D100BF012084F8350000BFD2
:1021D000002084F8340000BFE06C10B12046E16CB0
:1021E000884700BFA4E70000400000202DE9F0412F
:1021F0000446002500F070F9074614B90120BDE837
:10220000F081606A00B100BF022084F8350000BF91
:10221000002084F8340000BF2068006820F001002E
:10222000216808600AE000F057F9C01B052805D9AD
:1022300020206065032084F83500E0E7206800680E
:1022400000F001000028EED1206805682148054013
:10225000D4E901010843E168084321690843616941
:102260000843A1690843E1690843216A084305431B
:10227000606A042803D1D4E90B01084305432068B0
:1022800005602068456925F00705606A0543606AB6
:1022900004280DD1A06A0543E06A48B12046FEF744
:1022A000B7FE28B140206065012084F83500A6E71C
:1022B000206845612046FEF791FE064694F85C10C2
:1022C0003F208840B06000206065012084F8350020
:1022D000002094E73F8010F0F8B502460B46002539
:1022E000002400200021D6E0012606FA01F51E6830
:1022F00006EA0504AC4274D11E7906F00306012EED
:1023000004D01E7906F00306022E13D190684F0008
:102310000326BE40B0434F00DE68BE4030439060AD
:10232000506801268E40B0431E79C6F300168E40D9
:10233000304350601E7906F00306032E09D0D068A2
:102340004F000326BE40B0434F009E68BE4030435E
:10235000D0601E7906F00306022E13D1CF0802F1D9
:10236000200656F827004E07F70E0F26BE40B04352
:102370004F07FF0E1E69BE403043CF0802F1200612
:1023800046F8270010684F000326BE40B0431E7970
:1023900006F003064F00BE40304310605E6806F44E
:1023A0004036002E76D000BF002600963C4E3668A0
:1023B00046F480463A4F3E603E46366806F4804614
:1023C000009600BF00BF374E8F0856F827008E07D3
:1023D000370F0F26BE40B043334EB24202D1002623
:1023E00024E057E0314EB24201D101261EE0304ECA
:1023F000B24201D1022619E02E4EB24201D103268B
:1024000014E02D4EB24201D104260FE02B4EB24211
:1024100001D105260AE02A4EB24201D1062605E086
:10242000284EB24201D1072600E008268F073F0F51
:10243000BE4030431B4E8F0846F82700224E3068BE
:10244000A0435E6806F4801606B120431E4E30603D
:10245000361D3068A0435E6806F4001606B12043BE
:10246000194E361D3060184E361F3068A0435E6826
:1024700006F4003606B12043134E361F3060361F77
:102480003068A0435E6806F4803606B120430E4EE5
:10249000083E3060491C1029FFF426AFF8BD00004B
:1024A0004438024008380140000002400004024065
:1024B00000080240000C02400010024000140240DC
:1024C00000180240001C0240083C01400AB1816132
:1024D00001E00B0483617047014800687047000009
:1024E0003400002003480068034909780844014982
:1024F00008607047340000203C00002010B50D48F3
:10250000006840F400700B4908600846006840F419
:10251000806008600846006840F48070086003200E
:1025200000F0DCF80F2000F007F800F05FF8002062
:1025300010BD0000003C02402DE9F04188B0044687
:102540000027B84600BF002001902348006840F0F3
:102550001000214908600846006800F01000019052
:1025600000BF00BF02A903A800F08EF9069F1FB9A3
:1025700000F0B2F9054602E000F0AEF94500174858
:10258000B5FBF0F0A0F1010815481649086040F2CB
:10259000E7311448C160C0F8048000210161816006
:1025A000816100F0DBFE064696B90E4800F092FF0E
:1025B00006466EB9362000F043F8102C07D20022F0
:1025C0002146362000F04CF80748046000E0012660
:1025D000304608B0BDE8F0814038024040420F006C
:1025E00000100040A40C00203800002008B500BFF7
:1025F000002000901148006840F480400F490860B6
:102600000846006800F48040009000BF00BF00BF93
:1026100000200090081F006840F08050091F0860EB
:102620000846006800F08050009000BF00BF002204
:102630000F21901E00F014F808BD0000443802403D
:1026400001460846002809DB00F01F0301229A40DA
:1026500043099B0003F1E023C3F8002100BF70474A
:102660002DE9F05F80460D461646002703F07AFDFF
:10267000074639462A46334601F00700C0F1070AEB
:10268000BAF1040F02D94FF0040A01E0C0F1070AC1
:10269000D14600F1040ABAF1070F02D24FF0000A46
:1026A00001E0A0F1030AD4464FF0010A0AFA09FA40
:1026B000AAF1010A0AEA020A0AFA0CFA4FF0010B1F
:1026C0000BFA0CFBABF1010B0BEA030B4AEA0B0410
:1026D0002146404603F04EFDBDE8F09F00BF00F0EC
:1026E0000702064B19684FF6FF031940044B0B43D2
:1026F00043EA0221014B196000BF70470CED00E076
:102700000000FA0570B504460D460CB9012070BDF5
:102710005848006800F00700A84209D255490D70DA
:102720000846006800F00700A84201D00120EEE74B
:10273000207800F0020002281DD1207800F004006B
:10274000042805D14C48006840F4E0504A4908602C
:10275000207800F00800082805D14748006840F4B8
:102760006040454908604448006820F0F000A168D6
:10277000084341490860207800F00100A8B3606870
:10278000012807D13C4808380068C0F34040B8B978
:102790000120BCE76068022802D06068032807D1E6
:1027A000354808380068C0F3406048B90120AEE7FA
:1027B000314808380068C0F3400008B90120A6E796
:1027C0002D48006820F00300616808432A4908602A
:1027D000FFF782FE064609E0FFF77EFE801B41F20E
:1027E0008831884202D9032091E707E02248006837
:1027F00000F00C006168B0EB810FEDD11D4800685E
:1028000000F00700A84209D91A490D70084600686F
:1028100000F00700A84201D0012078E7207800F0FE
:102820000400042807D11448006820F4E050E1684F
:10283000084311490860207800F00800082808D1F2
:102840000D48006820F46040216940EAC1000A494F
:10285000086000F061F808490968C1F30311074AEC
:10286000515CC8400649086006480068FFF764FEEE
:1028700000204CE7003C02400838024004E0000819
:1028800040000020380000200F2202600D4A12682C
:1028900002F0030242600B4A126802F0F00282600A
:1028A000084A126802F4E052C260064A126802F452
:1028B0006042D2080261044A126802F007020A600C
:1028C0007047000008380240003C024001480068A0
:1028D000704700004000002000B5FFF7F7FF0449F3
:1028E0000968C1F38221034A515CC84000BD000061
:1028F0000838024014E0000800B5FFF7E7FF04497C
:102900000968C1F34231034A515CC84000BD000070
:102910000838024014E000082DE9F04700240025A3
:102920000026A1462548006800F00C0020B10428CC
:1029300005D008283AD105E0DFF8849039E0DFF8C7
:10294000849036E01D48001F006800F03F041B48DB
:10295000001F006800F4800078B11A481749091F69
:102960000968C1F38811A0FB0170014622460023CB
:102970003846FDF7F9FC05460EE011480F49091FDE
:102980000968C1F38811A0FB0170014622460023AB
:102990003846FDF7E9FC05460848001F0068C0F30B
:1029A0000140401C4600B5FBF6F902E0DFF810904C
:1029B00000BF00BF4846BDE8F0870000083802406D
:1029C0000024F400001BB700F8B504460CB9012040
:1029D000F8BD207800F00100002874D0F9480068A4
:1029E00000F00C0004280DD0F648006800F00C0040
:1029F000082813D1F348001F006800F48000B0F5E8
:102A0000800F0BD1EF4808380068C0F34040002821
:102A100059D06068002856D10120D9E700BF60680E
:102A2000B0F5803F08D1E7480838006840F48030AE
:102A3000E449083908601EE06068B0F5A02F0DD1A8
:102A4000E0480838006840F48020DE490839086012
:102A50000846006840F4803008600CE0D948083827
:102A6000006820F48030D7490839086008460068BB
:102A700020F48020086000BF606890B1FFF72CFD53
:102A8000054606E0FFF728FD401B642801D9032016
:102A90009EE7CC4808380068C0F340400028F1D0D9
:102AA00011E0FFF719FD054606E0FFF715FD401B95
:102AB000642801D903208BE7C24808380068C0F3B6
:102AC00040400028F1D1207800F0020002285FD1B8
:102AD000BC48006800F00C0058B1BA48006800F02B
:102AE0000C0008281CD1B748001F006800F48000C3
:102AF000B0B9B44808380068C0F3400020B1E068BD
:102B0000012801D0012063E7AE480838006820F0B2
:102B1000F800216940EAC100AA490839086037E095
:102B2000E06800B30120A8490860FFF7D5FC05461E
:102B300006E0FFF7D1FC401B022801D9032047E73C
:102B4000A04808380068C0F340000028F1D09D4834
:102B50000838006820F0F800216940EAC10099496E
:102B60000839086014E0002097490860FFF7B4FCBA
:102B7000054606E0FFF7B0FC401B022801D9032000
:102B800026E7904808380068C0F340000028F1D1DB
:102B9000207800F0080008282CD16069A8B1012035
:102BA0008A490860FFF798FC054606E0FFF794FCA9
:102BB000401B022801D903200AE782486C300068D4
:102BC000C0F340000028F1D014E000207F490860E5
:102BD000FFF782FC054606E0FFF77EFC401B02285B
:102BE00001D90320F4E677486C300068C0F3400058
:102BF0000028F1D1207800F00400042870D10027CB
:102C000070483830006800F0805090B900BF002054
:102C100000906C483830006840F080506949383185
:102C200008600846006800F08050009000BF00BFB8
:102C300001276748006800F48070B0B964480068F4
:102C400040F4807062490860FFF746FC054606E0E4
:102C5000FFF742FC401B022801D90320B8E65C487C
:102C6000006800F480700028F2D000BFA06801283E
:102C700008D154486830006840F00100514968317B
:102C800008601DE0A06805280DD14E486830006836
:102C900040F004004B49683108600846006840F085
:102CA000010008600CE047486830006820F001002F
:102CB0004449683108600846006820F00400086054
:102CC00000BFA068A8B1FFF707FC054609E0FFF7C1
:102CD00003FC401B41F28831884202D9032077E689
:102CE00026E0384868300068C0F340000028EED085
:102CF00013E0FFF7F1FB054608E0FFF7EDFB401B93
:102D000041F28831884201D9032061E62D486830BC
:102D10000068C0F340000028EFD1012F07D12948F7
:102D20003830006820F0805026493831086000BFF4
:102D3000A069002845D02348006800F00C0008284E
:102D40005DD0A069022845D100201F490866FFF721
:102D5000C3FB054606E0FFF7BFFB401B022801D975
:102D6000032035E6174808380068C0F340600028A3
:102D7000F1D1D4E907010843616A40EA81110122D7
:102D8000A06AC2EB500041EA00412C20005D41EAFC
:102D900000600C49091F086001200B490866FFF715
:102DA0009BFB054606E0FFF797FB401B022801D975
:102DB00003200DE6034808380068C0F3406000288F
:102DC000F1D049E00838024000004742800E4742F7
:102DD00000700040002021490866FFF77DFB054692
:102DE00006E0FFF779FB401B022801D90320EFE53D
:102DF0001B480068C0F340600028F2D12CE0A069B5
:102E0000012800D1E4E51648001D0668A0690128E4
:102E100020D006F48001E06981421BD106F03F0119
:102E2000206A814216D147F6C0703040616AB0EB2B
:102E3000811F0FD106F440310122A06AC2EB50007D
:102E4000B1EB004F06D106F070612C20005DB1EBB4
:102E5000006F01D00120BBE50020B9E5000047422A
:102E60000038024010B504460CB9012010BD606A5C
:102E700038B96068B0F5827F00D105E00021E161DA
:102E800002E00021216161610021A16294F85100FA
:102E900028B9002084F85000204600F047F80220AE
:102EA00084F851002068006820F040002168086024
:102EB000A08800F48270218901F404410843A189AB
:102EC00001F400610843217C01F002010843217DE7
:102ED00001F001010843218B01F400710843217FB7
:102EE00001F0380108432021095D01F08001084309
:102EF000218D01F400510843216808600421A06974
:102F000001EA104094F8241001F0100108432168F0
:102F100048602068C06920F400602168C861002012
:102F20006065012084F8510000209FE710B586B04D
:102F30000446142101A8FDF747FB48492068884250
:102F40007ED100BF002000904548006840F48050CA
:102F5000434908600846006800F48050009000BFB4
:102F600000BF00BF002000903D481438006840F0CA
:102F700002003B49143908600846006800F002006E
:102F8000009000BF00BF00BF00200090084600680E
:102F900040F0010008600846006800F00100009061
:102FA00000BF00BF18200190022002900020039073
:102FB000032004900520059001A92A48FFF78CF909
:102FC00080200190022002900020039003200490B2
:102FD0000520059001A92448FFF77EF923482449DC
:102FE00008604FF0C0604860002121488160C160E6
:102FF0004FF480610161002141618161C161016221
:103000004162FFF7F3F808B1FEF78AF800BF1848ED
:10301000E064846300BF15481830164908604FF01B
:10302000C06048604021134881600021C1604FF4B6
:1030300080610161002141618161C161016200E043
:103040000AE04162FFF7D2F808B1FEF769F800BF65
:103050000848A064846300BF06B010BD0030014082
:103060004438024000040240000002404064024034
:1030700068090020C80900202DE9FF5F0446884642
:1030800091461D460E9E012002900020019000BF37
:1030900094F85000012803D1022004B0BDE8F09F4D
:1030A000012084F8500000BFFFF716FA074694F895
:1030B00051B060680390AA46BBF1010F0BD0039892
:1030C000B0F5827F04D1A06810B9BBF1040F02D023
:1030D00002200190DBE0B8F1000F03D0B9F1000F3E
:1030E00000D015B901200190D1E094F851000428D6
:1030F00002D0052084F8510000206065C4F83890A3
:10310000E587A587C4F83080E586A58620646064DD
:103110002068006800F04000402805D02068006862
:1031200040F0400021680860E068B0F5006F4AD1C7
:10313000606810B1BAF1010F09D1206B00882168D5
:10314000C860206B801C2063E08E401EE08633E068
:103150002068806800F00200022810D1E08E70B173
:10316000029801280BD1206B00882168C860206B71
:10317000801C2063E08E401EE086002002902068C4
:10318000806800F0010068B1E08F58B12068C06825
:10319000A16B0880A06B801CA063E08F401EE087BD
:1031A00001200290FFF798F9C01BB04204D3701CB5
:1031B00010B1032001906AE0E08E0028C8D1E08FB2
:1031C0000028C5D14AE0606810B1BAF1010F09D1F9
:1031D000206B007821680873206B401C2063E08E10
:1031E000401EE08634E02068806800F0020002287B
:1031F00010D1E08E70B1029801280BD1206B0078BD
:1032000021680873206B401C2063E08E401EE0861E
:10321000002002902068806800F0010068B1E08F13
:1032200058B12068C068A16B0870A06B401CA063F7
:10323000E08F401EE08701200290FFF74DF9C01B90
:10324000B04201D3701C00B916B9032001901EE0F2
:10325000E08E0028C7D1E08F0028C4D13A4631461D
:10326000204602F001F820B1012001902020606585
:103270000DE0A06850B900BF002000902068C06831
:10328000009020688068009000BF00BF00BF012050
:1032900084F8510000BF002084F8500000BF01985E
:1032A000FBE670477047000030B502460B4600BF92
:1032B00092F83C00012801D1022030BD012082F8A3
:1032C0003C0000BF022082F83D001068446810688E
:1032D000816824F070041868044310684460184D35
:1032E0001068A8421BD01068B0F1804F17D0154D60
:1032F0001068A84213D0144D1068A8420FD0134D87
:103300001068A8420BD0124D1068A84207D0114D8A
:103310001068A84203D0104D1068A84205D121F0D2
:1033200080015868014310688160012082F83D00E7
:1033300000BF002082F83C0000BF00BFBDE70000D6
:10334000000001400004004000080040000C004064
:1033500000040140004001400018004010B5044640
:103360000CB9012010BD94F83D0028B9002084F864
:103370003C00204600F026F8022084F83D00211D84
:10338000206802F00DF9012084F8460000BF84F89F
:103390003E0001213F2001554020015541200155AB
:1033A00000BF00BF012084F84200432001554420A3
:1033B00001554520015500BF012084F83D00002043
:1033C000D0E7000038B504461849206888420FD17C
:1033D00000BF002000901648006840F00400144927
:1033E00008600846006800F00400009000BF1BE081
:1033F00010492068884217D100BF002000900C4877
:10340000006840F008000A4908600846006800F0BB
:103410000800009000BF00BF002205213220FFF706
:103420001FF93220FFF70CF938BD000000080040FA
:1034300040380240000C0040014691F83D00012850
:1034400001D001207047022081F83D001A4B086826
:1034500098421BD00868B0F1804F17D0174B08680E
:10346000984213D0164B086898420FD0154B086845
:1034700098420BD0144B0868984207D0134B086849
:10348000984203D0124B086898420CD108688068B3
:1034900000F00702062A0CD00868006840F001001E
:1034A0000B68186005E00868006840F001000B68D0
:1034B00018600020C6E70000000001400004004042
:1034C00000080040000C00400004014000400140A2
:1034D00000180040014691F83D00012801D001206C
:1034E0007047022081F83D000868C06840F0010084
:1034F0000B68D8601A4B086898421BD00868B0F176
:10350000804F17D0174B0868984213D0164B0868A5
:1035100098420FD0154B086898420BD0144B08689E
:10352000984207D0134B0868984203D0124B0868A2
:1035300098420CD10868806800F00702062A0CD077
:103540000868006840F001000B68186005E0086832
:10355000006840F001000B6818600020C0E7000020
:10356000000001400004004000080040000C004042
:103570000004014000400140001800402DE9F041E6
:1035800004460D46002700BF94F83C00012802D1F4
:103590000220BDE8F081012084F83C0000BF022039
:1035A00084F83D002068866826F0770626F47F467A
:1035B000206886602868502833D00CDC202850D042
:1035C00004DC00284BD0102851D149E0302849D0E4
:1035D00040284CD139E060282DD0702807D0B0F5B4
:1035E000805F03D0B0F5005F41D10DE041E0D5E947
:1035F00002136A68206802F050F82068866846F076
:1036000077062068866034E0D5E902136A6820688E
:1036100002F043F82068806840F4804021688860A8
:1036200027E0EA686968206802F028F950212068DC
:1036300002F03EF81DE0EA686968206802F031F99E
:103640006021206802F034F813E0EA6869682068B5
:1036500002F014F94021206802F02AF809E000BFC6
:1036600000BF00BF2968206802F022F801E00127AE
:1036700000BF00BF012084F83D0000BF002084F897
:103680003C0000BF384684E7704710B50446206808
:103690000069C0F34000D8B12068C068C0F34000A2
:1036A000B0B16FF002002168086101202077206826
:1036B000806900F0030018B12046FFF7E5FF05E040
:1036C000204600F0DFF8204600F093F90020207734
:1036D00020680069C0F38000D8B12068C068C0F3DA
:1036E0008000B0B16FF004002168086102202077EB
:1036F0002068806900F4407018B12046FFF7C4FFCD
:1037000005E0204600F0BEF8204600F072F90020E7
:10371000207720680069C0F3C000D8B12068C06875
:10372000C0F3C000B0B16FF0080021680861042048
:1037300020772068C06900F0030018B12046FFF729
:10374000A3FF05E0204600F09DF8204600F051F967
:103750000020207720680069C0F30010D8B12068ED
:10376000C068C0F30010B0B16FF0100021680861AC
:10377000082020772068C06900F4407018B1204606
:10378000FFF782FF05E0204600F07CF8204600F0BD
:1037900030F9002020772068006900F0010058B15E
:1037A0002068C06800F0010030B16FF001002168AE
:1037B0000861204600F0A4F920680069C0F3C01039
:1037C00058B12068C068C0F3C01030B16FF08000FD
:1037D000216808612046FFF764FD20680069C0F396
:1037E000801058B12068C068C0F3801030B16FF00D
:1037F000400021680861204600F0F8F9206800695F
:10380000C0F3401058B12068C068C0F3401030B118
:103810006FF02000216808612046FFF743FD10BDCE
:1038200010B586B00446142101A8FCF7CDFE12495C
:10383000206888421DD100BF002000900F4800681A
:1038400040F008000D4908600846006800F00800D4
:10385000009000BF00BF4FF4804001900220029012
:103860000020039004900220059001A90448FEF76F
:1038700033FD06B010BD00000008004030380240A3
:10388000000C024070472DE9F04104460D461646F3
:10389000002700BF94F83C00012802D10220BDE8B7
:1038A000F081012084F83C0000BF36B1042E1BD00B
:1038B000082E31D00C2E5ED145E02946206801F05B
:1038C00001FF2068806940F0080021688861206855
:1038D000806920F004002168886120688069296976
:1038E00008432168886148E02946206801F022FFEA
:1038F0002068806940F400602168886120688069E0
:1039000020F480602168886120688069296940EA24
:1039100001202168886130E02946206801F048FFD5
:103920002068C06940F008002168C8612068C0694B
:1039300020F004002168C8612068C0692969084333
:103940002168C86119E02946206801F06DFF2068F0
:10395000C06940F400602168C8612068C06920F433
:1039600080602168C8612068C069296940EA012037
:103970002168C86101E0012700BF00BF00BF00202F
:1039800084F83C0000BF384689E710B504460CB9FE
:10399000012010BD94F83D0028B9002084F83C00B7
:1039A000204600F025F8022084F83D00211D206803
:1039B00001F0F6FD012084F8460000BF84F83E00C7
:1039C00001213F200155402001554120015500BFF4
:1039D00000BF012084F842004320015544200155D6
:1039E0004520015500BF012084F83D000020D0E7AC
:1039F0007047704770B504460D4615B994F83E00FF
:103A00000BE0042D02D13F20005D06E0082D02D11D
:103A10004020005D01E04120005D012801D001202F
:103A200070BD1DB9022084F83E000EE0042D03D1C4
:103A300002213F20015508E0082D03D1022140203A
:103A4000015502E00221412001550122294620684A
:103A500001F012FE23492068884203D022492068E1
:103A6000884201D1012000E0002028B12068406C8C
:103A700040F40040216848641A49206888421BD0FD
:103A80002068B0F1804F17D018492068884213D0C1
:103A90001749206888420FD01649206888420BD009
:103AA00011492068884207D013492068884203D012
:103AB0001249206888420CD12068806800F007060F
:103AC000062E0CD02068006840F0010021680860D4
:103AD00005E02068006840F00100216808600020CF
:103AE0009EE7000000000140000401400004004087
:103AF00000080040000C0040004001400018004059
:103B000010B5044631492068884258D13048D0F871
:103B10008C01B0F8CB04401F00EE100AF8EEC00A8A
:103B2000B2EE041A80EE810ADFED2A0A80EE201A36
:103B30009FED290A70EE410A2548D0F88C01B0F8B3
:103B4000CD142348D0F88C01B0F89F04081A283807
:103B500000EE100AB8EEC00A80EE201ABCEEC10AD0
:103B600010EE100A1D4908801D48407E20B11D48F6
:103B70000088401C1B490880184800881E381949D5
:103B80000988884206DC0020114981F89001154916
:103B9000088003E001200E4981F890010C48D0F81C
:103BA0008C01B0F8CD140A48D0F88C01B0F89F040D
:103BB000081A282803DC0020054981F890010A49E9
:103BC0002068884201D1FEF78DFC10BD000C00403A
:103BD0002856002000007A449999993E020000205E
:103BE000684E002000000020001000407047704721
:103BF000704700002DE9F84F0446206805682068EA
:103C0000C668206847694FF00009CA4605F00F09E9
:103C1000B9F1000F0AD105F0200038B106F02000FC
:103C200020B1204601F0EAFEBDE8F88FB9F1000F9F
:103C30007CD007F0010018B906F49070002875D008
:103C400005F0010030B106F4807018B1206C40F02E
:103C50000100206405F0040030B107F0010018B144
:103C6000206C40F00200206405F0020030B107F043
:103C7000010018B1206C40F00400206405F0080039
:103C800048B106F0200010B907F0010018B1206C0F
:103C900040F008002064206C002846D005F0200089
:103CA00028B106F0200010B1204601F0A7FE2068E0
:103CB0004069C0F3801A206C00F0080010B9BAF116
:103CC000000F2DD0204601F053FE2068406900F01F
:103CD0004000402820D100BF00BF2168143151E8C6
:103CE000001F21F040002168143141E80002002A41
:103CF000F3D100BFA06B50B17548A16B0865A06BF4
:103D0000FEF73FF988B1A06B016D88470DE02046B2
:103D1000FFF76EFF09E009E02046FFF769FF04E0C6
:103D20002046FFF765FF002020647DE7206B012817
:103D300076D105F01000002872D006F0100000289F
:103D4000FAD000BF00200090206800680090206832
:103D50004068009000BF00BF2068406900F040004C
:103D600040285ED1A06B006840681FFA80F8B8F167
:103D7000000F54D0A08D404551DDA4F82E80A06BDB
:103D8000C069B0F5807F43D000BF00BF21680C310F
:103D900051E8001F21F4807021680C3141E80002D5
:103DA000002AF3D100BF00BF00BF2168143151E8E1
:103DB000001F21F001002168143141E80002002AAF
:103DC000F3D100BF00BF00BF2168143151E8001FCC
:103DD00021F040002168143141E80002002AF3D1AB
:103DE00000BF202084F83E000020206300BF00BFF9
:103DF00021680C3151E8001F21F0100021680C31BE
:103E000041E80002002AF3D100BFA06BFEF763F87F
:103E1000A08DE28D801A81B22046FFF7E8FE03E70D
:103E200040E0A08DE18D401A1FFA80F8E08DC0B30C
:103E3000B8F1000F35D000BF00BF21680C3151E848
:103E4000001F21F4907021680C3141E80002002A23
:103E5000F3D100BF00BF00BF2168143151E8001F3B
:103E600021F001002168143141E80002002AF3D159
:103E700000BF202084F83E000020206300BF00BF68
:103E800021680C3151E8001F21F0100021680C312D
:103E900041E80002002AF3D100BF41462046FFF767
:103EA000A6FEC1E605F0800030B106F0800018B132
:103EB000204601F035FFB7E605F0400030B106F0CE
:103EC000400018B1204601F089FDADE600BFABE629
:103ED0005D59000810B504460CB9012010BDA06959
:103EE00000B100E000BF94F83D0028B9002084F83C
:103EF0003C00204600F028F8242084F83D0020688B
:103F0000C06820F400502168C860204601F0F2FD2E
:103F10002068006920F490402168086120684069A9
:103F200020F02A00216848612068C06840F40050F1
:103F30002168C86000202064202084F83D0084F8B7
:103F40003E000020CAE7000010B586B004461421E8
:103F500001A8FCF739FB99492068884256D100BF77
:103F6000002000909648006840F0100094490860D6
:103F70000846006800F01000009000BF00BF00BFBE
:103F8000002000908E481438006840F002008C49F0
:103F9000143908600846006800F00200009000BF75
:103FA00000BF00BF002000900846006840F00100FC
:103FB00008600846006800F00100009000BF00BFE4
:103FC00080200190022002900020039003200490A2
:103FD0000720059001A97B48FEF77EF94FF4007099
:103FE00001900220029000200390032004900720FB
:103FF000059001A97448FEF76FF9002205212520DC
:10400000FEF72EFB2520FEF71BFBD4E06F4920684E
:10401000884258D100BF002000906948001F006806
:1040200040F480206649091F08600846006800F4D3
:104030008020009000BF00BF00BF002000906048BB
:104040001438006840F004005D49143908600846DF
:10405000006800F00400009000BF00BF4FF4406013
:10406000019002200290002003900320049007207A
:10407000059001A95648FEF72FF9564856490860A1
:104080004FF000604860002153488160C1604FF4E8
:1040900080610161002141618161C1610162416210
:1040A000FEF7A4F808B1FDF73BF800BF4A48A0634B
:1040B000846300BF002205212720FEF7D1FA2720C4
:1040C000FEF7BEFA77E045492068884273D100BF09
:1040D000002000903A48006840F02000384908600D
:1040E0000846006800F02000009000BF00BF00BF3D
:1040F0000020009032481438006840F040003049F9
:10410000143908600846006800F04000009000BFC5
:1041100000BF4FF4844001900220029000200390E1
:10412000032004900820059001A92D48FEF7D4F83B
:104130002C482D4908608005486000212A4881608C
:10414000C1604FF480610161002141618161C16101
:1041500001624162FEF74AF808B1FCF7E1FF00BFD7
:104160002148A063846300BF1E4878301F4908605F
:104170004FF02060486040211C4881600021C160F0
:104180004FF480610161002141618161C16101627F
:104190004162FEF72BF808B1FCF7C2FF00BF1348DD
:1041A0006063846300BF002205214720FEF758FAB0
:1041B0004720FEF745FA06B010BD00000010014090
:1041C0004438024000040240000002400048004021
:1041D0000008024028600240840B002000140140C7
:1041E0000018024028640240E40B0020440C002028
:1041F00070472DE9F84F04460E46174699464FF092
:10420000000A94F83D0020285AD106B117B90120C0
:10421000BDE8F88F00BF94F83C00012801D10220CE
:10422000F6E7012084F83C0000BF00202064212034
:1042300084F83D00FEF750F98246A784E784A06821
:10424000B0F5805F04D1206910B90025B04602E0C6
:1042500035464FF0000800BF002084F83C0000BF46
:104260001BE05346002280212046CDF8009001F04B
:1042700087FD08B10320CBE745B9B8F80000C0F3CB
:1042800008002168486008F1020803E028782168E6
:1042900048606D1CE08C401EE084E08C0028E0D17A
:1042A0005346002240212046CDF8009001F068FDE1
:1042B00008B10320ACE7202084F83D000020A7E7E8
:1042C0000220A5E7704700BFFEE70000002007F0CE
:1042D0008BF802E0642005F09FFCFCF732FB00281D
:1042E000F8D1354AA2F10C01101DFCF739FB00236F
:1042F000DFED320A9FED320A324A0121324800F0E6
:1043000027FE3248FCF7ACFA314805F06DFB51E06E
:10431000294AA2F10C01101DFCF722FB2C4926486A
:10432000001D05F0BBFB2448103890ED033AF0EE79
:10433000432A90ED023AB0EE432A90ED013AF0EEB6
:10434000431A90ED073AB0EE431A90ED063AF0EEBC
:10435000430A90ED053AB0EE430A1C4800F084FB96
:10436000154B1C331A1F111F184805F07DFA002049
:1043700011E01149143101EB800191ED000ADFEDEC
:10438000150A20EE200A0C49143101EB800181ED61
:10439000000A411CC8B20328EBDB0748103890ED37
:1043A0000A0AFFEE000A20EE200A80ED0A0A012028
:1043B00005F032FCACE70000984E002000808945F3
:1043C00000A08C4528E00008B84E0020304F0020A7
:1043D0004C4F0020E12E654270B55148458A514846
:1043E0000088684000EA05044E480088684020EADA
:1043F00005064C48058014224B4901F11400FCF7D6
:104400002AF8402C03D101204749887102E000209E
:1044100045498871802C03D101204349C87102E0CD
:1044200000204149C871B4F5807F03D101203E4985
:10443000087202E000203C490872B4F5007F03D105
:1044400001203949487202E0002037494872B4F52A
:10445000806F03D101203449887202E00020324984
:104460008872B4F5006F03D101202F49C87202E0B1
:1044700000202D49C872B4F5805F03D101202A497C
:10448000087302E0002028490873B4F5005F03D1E7
:1044900001202549487302E0002023494873B4F500
:1044A000804F03D101202049887302E000201E497B
:1044B0008873B4F5004F03D101201B49C87302E093
:1044C00000201949C873102C03D101201649087126
:1044D00002E0002014490871202C03D10120124968
:1044E000487102E00020104948710F4840790E4998
:1044F000497A08400C49087408464079C97B08404D
:10450000094948740846C07A497A084006498874BF
:104510000846C07AC97B08400349C87470BD0000D2
:10452000684E0020700100203858002010B50E4859
:104530000E4908600320486000210C488160C1607A
:104540004FF4102101614FF4001141610021017607
:1045500041768176C17601774177FDF7B6F908B1EA
:10456000FCF7DEFD10BD000000640040C008002024
:1045700010B50D480D4908600320486000210B4824
:104580008160C1604FF430210161002141610176F9
:1045900041768176C17601774177FDF796F908B1CA
:1045A000FCF7BEFD10BD000000680040E8080020D8
:1045B00008B500BF002000902248006840F4800049
:1045C000204908600846006800F48000009000BFA1
:1045D00000BF00BF002000900846006840F40010B3
:1045E00008600846006800F40010009000BF00BF9B
:1045F000002205210C20FEF733F80C20FEF720F8EE
:10460000002205213920FEF72BF83920FEF718F893
:10461000002205213A20FEF723F83A20FEF710F891
:10462000002205213B20FEF71BF83B20FEF708F88F
:10463000002205214520FEF713F84520FEF700F87B
:1046400008BD00003038024000B5BFB01C2236491A
:1046500038A8FBF787FF002138A805F0EEFA3349A8
:1046600008601C2230491C3131A8FBF77BFF002178
:1046700031A805F0E2FA2E4908601C222A49383197
:104680002AA8FBF76FFF00212AA805F0D6FA2949CE
:1046900008601C222449543123A8FBF763FF002142
:1046A00023A805F0CAFA244908601C221E4970316B
:1046B0001CA8FBF757FF00211CA805F0BEFA1F49F4
:1046C00008601C2218498C3115A8FBF74BFF00210C
:1046D00015A805F0B2FA1A4908601C221249A8313F
:1046E0000EA8FBF73FFF00210EA805F0A6FA15491A
:1046F00008601C220C49C43107A8FBF733FF0021D6
:1047000007A805F09AFA104908601C220649E03112
:104710006846FBF727FF0021684605F08EFA0B4933
:1047200008603FB000BD000000DF00080800002066
:104730000C000020100000201400002018000020B1
:104740001C00002020000020240000202800002061
:1047500000B587B0142102A8FBF736FF00BF002088
:1047600001903D48006840F002003B49086008465F
:10477000006800F00200019000BF00BF00BF0020F1
:1047800001900846006840F0400008600846006854
:1047900000F04000019000BF00BF00BF002001906A
:1047A0000846006840F0010008600846006800F014
:1047B0000100019000BF00BF00BF0020019008462B
:1047C000006840F0080008600846006800F0080033
:1047D000019000BF00BF00BF0020019008460068A4
:1047E00040F0040008600846006800F004000190F2
:1047F00000BF00BF00BF002001900846006840F0E5
:10480000800008600846006800F08000019000BF4A
:1048100000BF012210211148FDF758FE0122114668
:104820000F48FDF753FE1020029001200390002056
:1048300004900220059002A90848FDF74DFD0120D3
:1048400002900390002004900220059002A90448E1
:10485000FDF742FD07B000BD3038024000000240C5
:104860000004024010B50F480F4908604FF48270F1
:10487000486000210C488160C16002210161012172
:104880004161490281613821C161002101624162B7
:1048900081620A21C162FEF7E5FA08B1FCF740FC2B
:1048A00010BD0000003001401009002000B58DB09F
:1048B000002009900A900B900C90079008901C2102
:1048C0006846FBF781FE20482049086000204860C8
:1048D00000211E48816045F20721C160002101616D
:1048E0008161FEF73BFD08B1FCF71AFC4FF48050E4
:1048F000099009A91548FEF741FE08B1FCF710FC24
:104900001248FFF742F808B1FCF70AFC00200790B4
:10491000089007A90D48FEF7C7FC08B1FCF700FC9A
:1049200060200090002001900290049008226946C7
:104930000648FEF7A8FF08B1FCF7F2FB0348FEF7B4
:104940006FFF0DB000BD000000080040280A0020E5
:1049500000B587B000200390049005900690019068
:10496000029015481549086000204860002113484E
:1049700081604AF20F41C1600021016180218161A3
:10498000FEF7ECFC08B1FCF7CBFB4FF48050039032
:1049900003A90A48FEF7F2FD08B1FCF7C1FB0020AD
:1049A0000190029001A90548FEF77EFC08B1FCF7D2
:1049B000B7FB07B000BD0000000C0040700A0020EB
:1049C00010B50B480B4908604FF4E13048600021F6
:1049D00008488160C16001610C2141610021816151
:1049E000C161FFF777FA08B1FCF79AFB10BD000030
:1049F00000100140B80A002010B50A480A490860B2
:104A00000A484860002108488160C16001610C21AA
:104A1000416100218161C161FFF75CFA08B1FCF7D7
:104A20007FFB10BD00480040FC0A0020A08601006A
:104A300010B50B480B4908604FF4E1304860002185
:104A400008488160C16001610C21416100218161E0
:104A5000C161FFF73FFA08B1FCF762FB10BD00002F
:104A600000140140400B002000B52DED068B0246DE
:104A7000B0EE403AF0EE603AB0EE414AF0EE615AE4
:104A8000F0EE424AB0EE625AF5EEC05AF1EE10FA7C
:104A900009D1F5EEC04AF1EE10FA04D1B5EEC05AD4
:104AA000F1EE10FA7ED065EEA50A44EEA40A45EEBA
:104AB000050AB0EE600A05F00BF8F0EE402A25EE8C
:104AC000A20AF0EE405A24EEA20AF0EE404A25EE89
:104AD000220AB0EE405A92ED010AD2ED030A20EE0E
:104AE000200AD2ED000A92ED021AF0EE408A40EE62
:104AF000C18A92ED000AD2ED010A20EE200AD2ED21
:104B0000020A92ED031AF0EE409A40EE819AD2ED3D
:104B1000000A92ED001AB6EE000A10EE810AD2EDFC
:104B2000030A92ED031AB0EE409A00EE819A24EE49
:104B3000890AF0EE407A45EE697A25EE280AB0EE51
:104B400040AA05EEC9AA25EEA90AB0EE408A04EEF5
:104B5000E88A7C4890ED000AB5EEC00AF1EE10FA42
:104B600040DD90ED000A60EE270A774890ED000ADC
:104B70009FED761A00EE810A80ED000A714890EDF3
:104B8000000A60EE0A0A724890ED000A9FED6F1A63
:104B900000EE810A80ED000A6A4890ED000A60EE9E
:104BA000080A00E046E06B4890ED000A9FED671AA6
:104BB00000EE810A80ED000A634890ED000A33EEB2
:104BC000000AB0EE403A624890ED000A33EE800AE7
:104BD000F0EE403A5F4890ED000A34EE000AB0EE85
:104BE000404A0EE09FED5C0A574880ED000A9FEDB9
:104BF0005A0A574880ED000A9FED570A554880ED44
:104C0000000A5648D0ED000AB0EE430A00EEA70AAB
:104C1000B0EE403AD0ED000AB0EE630A00EE8A0A28
:104C2000F0EE403AD0ED000AB0EE440A00EE880AF9
:104C3000B0EE404A9FED4A0A23EE000AB0EE403A39
:104C40009FED470A23EE800AF0EE403A9FED440ABA
:104C500024EE000AB0EE404A92ED006AD2ED016AFD
:104C600092ED027AB1EE660A20EE030A07EE630ABD
:104C7000D2ED030A00EEC40AD2ED000A30EE200A9B
:104C800082ED000A26EE030A07EE040AD2ED030ABB
:104C900000EEE30AD2ED010A30EE200A82ED010AAD
:104CA00026EE230A06EEC40AD2ED030A00EE830ABA
:104CB000D2ED020A30EE200A82ED020A26EE040A44
:104CC00006EEA30A07EE430AD2ED030A30EE200AED
:104CD00082ED030AD2ED000A60EEA00A92ED011AFD
:104CE000D2ED011A41EE210A92ED021AD2ED021A1A
:104CF00041EE210A92ED031AD2ED031A41EE210A88
:104D0000B0EE600A04F0E4FEF0EE402A92ED000AF4
:104D100020EE220A82ED000A92ED010A20EE220A1C
:104D200082ED010A92ED020A20EE220A82ED020AC9
:104D300092ED030A20EE220A82ED030ABDEC068BF7
:104D400000BD0000D0010020D40100206F12833A82
:104D5000D8010020DC01002000000000CC01002070
:104D60006F12033AF0EE400AF5EEC00AF1EE10FAC7
:104D700002DDB0EE600A7047B1EE600AFBE700BFEB
:104D8000FEE700BFFEE7000070B52DED028B044684
:104D9000B0EE408AF0EE608A002524B99FED680AE3
:104DA000BDEC028B70BD94F8600000F0800060B133
:104DB0002046FBF7CDFE7020005D30B19FED600A0C
:104DC00084ED080A9FED5E0AEAE794ED100A84ED8F
:104DD000110A94ED0F0A84ED100AC4ED068A84EDE1
:104DE000078AC5F1010000EE100AB8EEC00A78EE9D
:104DF000C80A60EE200A94ED101A00EE105AB8EEC0
:104E0000400A40EE010AC4ED0F0A207808BB94ED79
:104E10000F0ADFED4C0AB4EEE00AF1EE10FA07DDFE
:104E200094ED0F0ADFED480A30EE600A84ED0F0AB8
:104E300094ED0F0ADFED450AB4EEE00AF1EE10FA48
:104E400007D294ED0F0ADFED400A30EE200A84ED20
:104E50000F0A94ED010AD4ED0F0A20EE200A84ED2A
:104E6000090A94ED0A0AD4ED020A94ED0F1A00EE35
:104E7000810A84ED0A0A94ED0D0A84ED0E0A94ED80
:104E80000C0A84ED0D0A94ED0F0AD4ED100A30EEF1
:104E9000600A84ED0C0A94ED030AD4ED0C0A20EEAE
:104EA000200A84ED0B0A94ED0A0AD4ED050AB4EE4B
:104EB000E00AF1EE10FA04DD94ED050A84ED0A0A29
:104EC00010E094ED0A0AD4ED050AF1EE600AB4EEA2
:104ED000E00AF1EE10FA05D294ED050AB1EE400AAF
:104EE00084ED0A0A94ED090AD4ED0A0A30EE200A8C
:104EF000D4ED0B0A30EE200A84ED080A94ED080A7E
:104F0000D4ED040AB4EEE00AF1EE10FA04DD94EDFB
:104F1000040A84ED080A10E094ED080AD4ED040AAE
:104F2000F1EE600AB4EEE00AF1EE10FA05D294ED6B
:104F3000040AB1EE400A84ED080A94ED080A2FE74E
:104F400000000000000034430000B443000034C3FC
:104F500010B500B102B910BD017092ED001A80EDDC
:104F6000011A92ED011A80ED021A92ED021A80EDFB
:104F7000031A80ED040AC0ED050A80F860309FED49
:104F80000D1A80ED0E1A80ED0D1A80ED0C1A9FEDB2
:104F9000091A80ED081A80ED0B1A80ED0A1A80EDCF
:104FA000091A80ED111A80ED101A80ED0F1A00BF5A
:104FB000D1E700000000000010B5234B1B685B69BF
:104FC00043F04003204C246863611F4B1B68DB687F
:104FD00043F010031C4C2468E3601C4B1B681B68E7
:104FE00023F00103194C2468236007E0174B1B686A
:104FF0001B6823F00103154C24682360134B1B68C6
:105000001B6803F00103002BF0D1114B0F4C2468F7
:10501000A3600E4B1B68D8600C4B1B6819610B4BCF
:105020001B685A60094B1B681B6843F48023074CBC
:1050300024682360054B1B681B6843F00103034C85
:105040002468236010BD0000FC0A0020840B0020AF
:10505000044800400149C1F8860470472C510020E3
:10506000264A1268126822F00102244B1B681A605B
:1050700007E0224A1268126822F001021F4B1B68E7
:105080001A601E4A1268126802F00102002AF0D16A
:105090001A4A12681A4B9A4205D94FF40012184B5B
:1050A0004C3B1A601BE0154A1268164B9A4205D910
:1050B0004FF40012124B503B1A6010E00F4A126876
:1050C000104B603B9A4205D94FF400120D4BB83B90
:1050D000DA6004E04FF400120A4BB83B9A60074ACA
:1050E0001268D060054A12685160044A126812685A
:1050F00042F00102014B1B681A607047440C00200B
:1051000058640240B860024010B504461C48C0F81C
:1051100082442EE01A48D0F882040078A52827D1CE
:105120001749D1F88204052100F0A2FF01281ED101
:105130001349D1F88214C81D00F024F81048B0F8C3
:105140008014D0F88204B0F801000930081A0C4924
:10515000A1F880040846D0F88214D0F88204B0F890
:105160000100093008440649C1F8820401E005E065
:1051700004E00348B0F880040028CBDC00BF10BD79
:105180002C51002010B504462E48D0F88204B0F807
:10519000050040F20222811A904230D00BDC012837
:1051A00012D0032816D0B0F5817F1AD0A0F20120CA
:1051B000002844D11CE0042928D005292DD0072936
:1051C00032D0FF293BD136E00B2221461E48FBF7A7
:1051D00087F935E0202221461B481B30FBF780F978
:1051E0002EE00422214618484D30FBF779F927E0DC
:1051F0000D22214614483B30FBF772F920E01022C3
:10520000214611480B30FBF76BF919E001222146CA
:105210000D484C30FBF764F912E0072221460A489A
:105220005130FBF75DF90BE0042221460648483077
:10523000FBF756F904E02046FFF70CFF00E000BF43
:1052400000BF10BD2C510020B655002008B58020AD
:10525000044B8200A3F500710090A1F5007005F0E9
:10526000D9FA08BD2C5500207CB504460D461646DB
:10527000164800681821B0FBF1F01549B0FBF1F0B9
:105280004FF47A71484301906068B0F5827F0DD188
:105290002B46002280212046009600F01BF898B192
:1052A000606D40F02000606503207CBD00BF019868
:1052B00000B908E00198401E019020688068C0F3A2
:1052C000C0100028F3D100BF0020EEE7400000200E
:1052D00040420F002DE9F84F04460D4690461E4609
:1052E000DDF82890FDF7F8F8A0EB0900371AFDF774
:1052F000F3F882462C480068C0F3CB307843009026
:1053000045E0701C002842D0FDF7E6F8A0EB0A004B
:10531000B84200D2A7BB2068406820F0E0002168B6
:1053200048606068B0F5827F0DD1A068B0F5004F8D
:1053300003D0A068B0F5806F05D12068006820F028
:10534000400021680860A06AB0F5005F0DD100BF81
:105350002068006820F40050216808602068006818
:1053600040F400502168086000BF012084F851001B
:1053700000BF002084F8500000BF0320BDE8F88F74
:10538000FFE7009800B900270098401E00902068B1
:1053900080682840A84201D1012000E0002040455B
:1053A000AFD10020EAE700004000002038B5022419
:1053B0000748B0F89704064A0090B2F89534B2F85E
:1053C0009D1492F8CF042246FBF73AFC38BD00004A
:1053D0002C510020144890F8F80206280FD11348E9
:1053E000B0F89D04052805DB0020114908704FF432
:1053F0007A70704701200E4908700020F9E70B48C9
:10540000B0F89D0419280ADB0020094908700748F4
:1054100090F8C604801CC0EB00104000E9E70120B2
:10542000034908700020E4E7204B00202C510020A5
:10543000C200002010B500BF502080F31188BFF3D8
:105440004F8FBFF36F8F00BF06F0E8FD18B14FF02C
:1054500080500449086000BF002080F3118800BF1D
:1054600010BD000004ED00E000B593B0302107A8A6
:10547000FBF7AAF8142102A8FBF7A6F800BF00204A
:1054800001902448006840F0805022490860084696
:10549000006800F08050019000BF00BF00BF0020F6
:1054A00001901D48006840F480401B490860084690
:1054B000006800F48040019000BF00BF0120079009
:1054C0000004089002200D9041050E9106210F91D5
:1054D000A8211091022111910421129107A8FDF732
:1054E00073FA08B1FBF71CFE0F2002900220039014
:1054F000002004904FF4A05005904FF48050069087
:10550000052102A8FDF7FEF808B1FBF709FE13B06C
:1055100000BD0000403802400070004014480068A0
:1055200040F47000124908601248006840F0010021
:105530001049086000200F49083108600D480068D4
:105540000D4908400B4908600C48091D0860081FF8
:10555000006820F48020091F0860002005490C31F4
:1055600008604FF000600249803908607047000011
:1055700088ED00E000380240FFFFF6FE1030002406
:1055800010B50248FEF781F810BD0000700A002037
:1055900010B50248FEF779F810BD0000A40C0020F9
:1055A00010B50268294B98420ED0B0F1804F0BD055
:1055B000274B984208D0274B984205D0264B98425B
:1055C00002D0264B984203D122F070024B681A4356
:1055D0001E4B984220D0B0F1804F1DD01C4B9842FA
:1055E0001AD01C4B984217D01B4B984214D01B4B1F
:1055F000984211D01A4B98420ED01A4B98420BD0B9
:10560000194B984208D0194B984205D0184B984234
:1056100002D0184B984203D122F44072CB681A434F
:1056200022F080034C6943EA040202608B68C36283
:105630000B688362054B984202D0084B984201D117
:105640000B6903630123436110BD000000000140AA
:105650000004004000080040000C0040000401402D
:105660000040014000440140004801400018004053
:10567000001C00400020004030B501F01F0501244F
:1056800004FA05F3046A9C430462046A01F01F05EE
:1056900002FA05F52C43046230BD30B50C46816832
:1056A00021F47F4142EA032525432943816030BD2F
:1056B0000A46816821F0700142F0070319438160B6
:1056C0007047000030B5056A25F001050562026AE1
:1056D0004368846924F0700424F003040D682C43AB
:1056E00022F002028D682A43104DA84200D103E047
:1056F0000F4DA84206D100BF22F00802CD682A4310
:1057000022F00402094DA84202D0094DA84207D157
:1057100023F4807323F400734D692B438D692B436D
:10572000436084614D684563026230BD0000014002
:105730000004014030B5056A25F010050562026AD3
:105740004368846924F4E04424F440740D6844EA16
:10575000052422F020028D6842EA0512124DA8426B
:1057600000D103E0114DA84207D100BF22F0800212
:10577000CD6842EA051222F040020B4DA84202D049
:105780000A4DA84209D123F4806323F400634D69D4
:1057900043EA85038D6943EA8503436084614D686C
:1057A0008563026230BD000000000140000401403A
:1057B00030B5056A25F480750562026A4368C469DC
:1057C00024F0700424F003040D682C4322F40072CA
:1057D0008D6842EA0522124DA84200D103E0114D26
:1057E000A84207D100BF22F40062CD6842EA052238
:1057F00022F480620A4DA84202D00A4DA84209D183
:1058000023F4805323F400534D6943EA05138D6953
:1058100043EA05134360C4614D68C563026230BD4D
:10582000000001400004014030B5056A25F48055B0
:105830000562036A4468C26922F4E04222F44072BD
:105840000D6842EA052223F400538D6843EA0533CC
:10585000084DA84202D0084DA84204D124F4804447
:105860004D6944EA85144460C2614D680564036271
:1058700030BD0000000001400004014030B50B467F
:105880001446026A056A25F001050562816921F066
:10589000F00141EA041122F00A021A438161026216
:1058A00030BD30B50B461446056A25F0100505627B
:1058B0008169026A21F4704141EA043122F0A002B8
:1058C00042EA03128161026230BD000010B51E4839
:1058D00000781E4908701E4890F88801A8B91D4834
:1058E0000068007920F03C0008301A490968087106
:1058F00019480068007920F03C0008301649096812
:10590000087100201049087014E0124800680079FE
:1059100020F03C001C300F49096808710E480068EF
:10592000007920F03C001C300B4909680871012007
:10593000054908700448007804490978884201D074
:1059400002F0DEF910BD00007C0100207D01002086
:1059500028560020080200200C02002070B50546E1
:10596000AC6B0020E085E0842046FEF741F970BD75
:1059700000BF00BF02680C3252E8002F22F4907181
:1059800002680C3242E80013002BF3D100BF00BFC5
:1059900000BF0268143252E8002F22F001010268B1
:1059A000143242E80013002BF3D100BF016B012930
:1059B0000ED100BF00BF02680C3252E8002F22F067
:1059C000100102680C3242E80013002BF3D100BF33
:1059D000202180F83E1000210163704710B5044675
:1059E0002068C06820F040002168C860202084F84A
:1059F0003D002046FEF766FC002010BDF8B50446C9
:105A000094F83E00222873D1A068B0F5805F0CD1D5
:105A1000206950B90025A66A20684068C0F30800D4
:105A20003080A06A801CA06215E0A56A0026A068EC
:105A3000B0F5805F03D0A06828B9206918B9206844
:105A40004068287004E02068406800F07F002870FB
:105A5000A06A401CA062E08D401E80B2E085002854
:105A600044D12068C06820F020002168C860206808
:105A7000C06820F480702168C8602068406920F008
:105A8000010021684861202084F83E00206B012835
:105A900026D10020206300BF00BF21680C3151E8EF
:105AA000001F21F0100021680C3141E80002002A9B
:105AB000F3D100BF2068006800F0100010280AD160
:105AC00000BF0020009020680068009020684068B7
:105AD000009000BF00BFA18D2046FEF788F802E0CD
